:080003001205FD12034080FB11
:0405B200D2A07F054F
:1005B600000000000000000000000000000000AE87
:0605C600071FEE70EB229E
:0F062400D2A11205B2C2A17F051205B6C2A02253
:0C064200C2A11205B2D2A17F050205B6CC
:0204CB00AD077B
:1004CD00E4FCECC39408748094805024C2A07F0592
:1004DD001205B6ED30E704D2A18002C2A17F05124C
:1004ED0005B6D2A0ED25E0FD7F051205B60C80D234
:0204FD00C2A09B
:0104FF0022DA
:10054E00E4FCECC394087480948050171205B2ED4D
:10055E0025E0FD30A103430501C2A07F051205B6BB
:05056E000C80DFAF0569
:010573002265
:100612001205B2A2A1E433FDC2A07F051205B6AF56
:0106220005D2
:0106230022B4
:1005E500C2A0EF24FF92A17F051205B61205B2C283
:0805F500A0D2A17F050205B6AA
:040633007F327E0094
:0B063700EF1FAC0670011E4C70F62295
:02050000AD0745
:10050200E4FBEBC39408748094805012C294ED1300
:100512009294120633D294EDC313FD0B80E47F3222
:050522007E0002063717
:10057400E4FBEBC39408748094805014C294EDC3DC
:1005840013FDD2943094034305801206330B80E2AA
:02059400AF05B1
:010596002242
:10052700C200D2947F787E00120637C2947F207E65
:1005370003120637D2947F647E00120637A2949284
:0605470000120633A200C1
:01054D00228B
:0B065A00EF1FAC0670011E4C70F62272
:10049200EF603224FB601314601914601F24037090
:1004A20027E5A0541F4480F5A022E5A0541F44A0D4
:1004B200F5A022E5A0541F44C0F5A022E5A0541FD8
:0904C20044E0F5A02253A01F2222
:080665007F0C7EA9DEFEDFFC24
:01066D00226A
:10059700AE077580FF7F061204928E807F017E0072
:0B05A70012065A7F071204928D80227A
:1005CC00C0F9A4B0999282F880908883C6A1868ED7
:0905DC007F010204081020408098
:1003D9000508AF08EF3395E0FEEF64064E7003752C
:1003E9000801E50824FE60151460241460291460CE
:1003F9003624047042E4F50B750C0A803A750B0536
:10040900AE0EAF0F7C007D641202DD8F0C80287563
:100419000B06750C108020750B06AE0EAF0F7C0015
:100429007D0A1202DD8007750B07AE0EAF0F7C0047
:100439007D0A1202DD8D0CE50B9005DD93FFE50CBD
:080449009005CC93FD0205971C
:1005FD005389F0438901758AEF758CD8C28DD2AFBE
:05060D00D28CD2A922ED
:03000B000204519B
:10045100C0E0C0F0C083C082C0D075D000C000C071
:1004610001C002C003C004C005C006C007758A9B55
:10047100758CFF1203D9D007D006D005D004D00364
:10048100D002D001D000D0D0D082D083D0F0D0E043
:010491003238
:10034000C2AF120527D2AF7FCC1205007F44120541
:10035000007F107E2712065AD2AF120527C2AF7F48
:10036000CC1205007FBE1205001205748F0D120518
:1003700074750E008F0FE50FF50EE50DF50FD2AF7A
:10038000E50E20E353C4F854F0C868F50EE50FC439
:10039000540F48F50FAE0EFF7C007D0A1202CB8E83
:1003A0000E8F0FE50D540FFCE4120216E4FBFA79F0
:1003B00020783F120106C004C005C006C007AC0E7D
:1003C000AD0FE4120211D003D002D001D000120010
:0803D0001512024A8E0E8F0F78
:0103D8002202
:10000E000202B6E86480F8E933E83360110460F068
:10001E00ED33EC337009E8FCE9FDEAFEEBFF220458
:10002E0060DED3EB9FEA9EE99DE8C2E78CF0C2F753
:10003E0095F0400CE8CCF8E9CDF9EACEFAEBCFFB1F
:10004E0012028185D0F05804700320D5B3E80470F5
:10005E00075002B2D50202C092D5EC0460F7E4CC90
:10006E00C0E0C398F8603B94186008400DD0E0FBE8
:10007E00020298E4FBFAC9FC8028E830E406E4C9E1
:10008E00FBE4CAFCE830E305E4C9CACBFCE854073C
:10009E006010F8C3E913F9EA13FAEB13FBEC13FC47
:1000AE00D8F130F52FC3E49CFCEF9BFFEE9AFEEDEA
:1000BE0099FDD0E0FBEF4E4D4C701222DB03020295
:1000CE00BDEC2CFCEF33FFEE33FEED33FDED30E7F0
:1000DE00EB020298EF2BFFEE3AFEED39FDD0E0FB7E
:1000EE0050130BBB00030202C0ED13FDEE13FEEF27
:0800FE0013FFEC13FC02029851
:10010600EC4D6011E8497017ED33EC3304600DE4F3
:10011600FCFFFEFD22E933E8330470F80202B61252
:10012600028158046009E4CC248150062850090253
:1001360002C02840030202BDC0E0EB4A7044B98009
:1001460006D0E0FB0202ACEF4E701CBD8008EBFF50
:10015600EAFEE9FD80EBE98DF0A4FEE5F00201EF91
:10016600E9CDF9EAFEEBFFEF89F0A4FCE5F0CE89D4
:10017600F0A42EFFE435F0CD89F0A42DFEE435F091
:100186008067EF4E7005BD80D780C3EF8BF0A4ACBF
:10019600F0EE8BF0A42CFCE435F0F8EF8AF0A42CFA
:1001A600E5F038FCE433CB8DF0A42CFCE5F03BF80D
:1001B600EE8AF0A42CFCE5F038F8E433CF89F0A4FD
:1001C6002CFCE5F038CF3400CE89F0A42FFFE5F003
:1001D6003EFEE433C98DF0A42EFEE5F039CD8AF05B
:1001E600A42FFFE5F03EFEE43DFD33D0E0FB5007D3
:1001F6000BBB000F0202C0EC2CFCEF33FFEE33FE0C
:06020600ED33FD02029839
:10020C0075F020800E75F010800575F0087D007E6D
:10021C00007F003392D530D503120332EC334010FB
:10022C00EF33FFEE33FEED33FDEC33FCD5F0ED2276
:0E023C00E5F0247EA2D513CC92E7CDCEFF22B2
:10024A00EDD2E7CD33EC3392D524814006E4FFFEAC
:10025A00FDFC22FCE4CFCECDCC24E0501174FF800B
:10026A00EDC3CC13CCCD13CDCE13CECF13CF0470A8
:07027A00F030D5DE02033273
:10028100E9D2E7C933E833F892D5EDD2E7CD33ECC3
:0702910033FC5002B2D5223C
:10029800EC30E7100FBF000C0EBE00080DBD0004C7
:1002A8000BEB6014A2D5EB13FCED92E7FD2274FF73
:1002B800FCFDFEFF22E480F8A2D574FF13FC7D80CC
:0302C800E480EFE0
:0300000002064EA7
:0C064E00787FE4F6D8FD758120020003DF
:1002CB00EF8DF0A4A8F0CF8CF0A428CE8DF0A42E47
:0202DB00FE2201
:1002DD00BC000BBE0029EF8DF084FFADF022E4CC05
:1002ED00F875F008EF2FFFEE33FEEC33FCEE9DECCE
:1002FD00984005FCEE9DFE0FD5F0E9E4CEFD22ED14
:10030D00F8F5F0EE8420D21CFEADF075F008EF2F5D
:10031D00FFED33FD4007985006D5F0F222C398FD4E
:05032D000FD5F0EA22EB
:0E033200C3E49FFFE49EFEE49DFDE49CFC22DC
:00000001FF
